{
  "contractName": "ChefWopNFT",
  "abi": [
    {
      "inputs": [
        {
          "internalType": "string",
          "name": "_name",
          "type": "string"
        },
        {
          "internalType": "string",
          "name": "_symbol",
          "type": "string"
        },
        {
          "internalType": "string",
          "name": "_baseUri",
          "type": "string"
        }
      ],
      "stateMutability": "nonpayable",
      "type": "constructor"
    },
    {
      "anonymous": false,
      "inputs": [
        {
          "indexed": true,
          "internalType": "address",
          "name": "account",
          "type": "address"
        },
        {
          "indexed": true,
          "internalType": "address",
          "name": "operator",
          "type": "address"
        },
        {
          "indexed": false,
          "internalType": "bool",
          "name": "approved",
          "type": "bool"
        }
      ],
      "name": "ApprovalForAll",
      "type": "event"
    },
    {
      "anonymous": false,
      "inputs": [
        {
          "indexed": true,
          "internalType": "address",
          "name": "previousOwner",
          "type": "address"
        },
        {
          "indexed": true,
          "internalType": "address",
          "name": "newOwner",
          "type": "address"
        }
      ],
      "name": "OwnershipTransferred",
      "type": "event"
    },
    {
      "anonymous": false,
      "inputs": [
        {
          "indexed": true,
          "internalType": "address",
          "name": "operator",
          "type": "address"
        },
        {
          "indexed": true,
          "internalType": "address",
          "name": "from",
          "type": "address"
        },
        {
          "indexed": true,
          "internalType": "address",
          "name": "to",
          "type": "address"
        },
        {
          "indexed": false,
          "internalType": "uint256[]",
          "name": "ids",
          "type": "uint256[]"
        },
        {
          "indexed": false,
          "internalType": "uint256[]",
          "name": "values",
          "type": "uint256[]"
        }
      ],
      "name": "TransferBatch",
      "type": "event"
    },
    {
      "anonymous": false,
      "inputs": [
        {
          "indexed": true,
          "internalType": "address",
          "name": "operator",
          "type": "address"
        },
        {
          "indexed": true,
          "internalType": "address",
          "name": "from",
          "type": "address"
        },
        {
          "indexed": true,
          "internalType": "address",
          "name": "to",
          "type": "address"
        },
        {
          "indexed": false,
          "internalType": "uint256",
          "name": "id",
          "type": "uint256"
        },
        {
          "indexed": false,
          "internalType": "uint256",
          "name": "value",
          "type": "uint256"
        }
      ],
      "name": "TransferSingle",
      "type": "event"
    },
    {
      "anonymous": false,
      "inputs": [
        {
          "indexed": false,
          "internalType": "string",
          "name": "value",
          "type": "string"
        },
        {
          "indexed": true,
          "internalType": "uint256",
          "name": "id",
          "type": "uint256"
        }
      ],
      "name": "URI",
      "type": "event"
    },
    {
      "inputs": [],
      "name": "admin",
      "outputs": [
        {
          "internalType": "address",
          "name": "",
          "type": "address"
        }
      ],
      "stateMutability": "view",
      "type": "function",
      "constant": true
    },
    {
      "inputs": [
        {
          "internalType": "address",
          "name": "account",
          "type": "address"
        },
        {
          "internalType": "uint256",
          "name": "id",
          "type": "uint256"
        }
      ],
      "name": "balanceOf",
      "outputs": [
        {
          "internalType": "uint256",
          "name": "",
          "type": "uint256"
        }
      ],
      "stateMutability": "view",
      "type": "function",
      "constant": true
    },
    {
      "inputs": [
        {
          "internalType": "address[]",
          "name": "accounts",
          "type": "address[]"
        },
        {
          "internalType": "uint256[]",
          "name": "ids",
          "type": "uint256[]"
        }
      ],
      "name": "balanceOfBatch",
      "outputs": [
        {
          "internalType": "uint256[]",
          "name": "",
          "type": "uint256[]"
        }
      ],
      "stateMutability": "view",
      "type": "function",
      "constant": true
    },
    {
      "inputs": [],
      "name": "baseUri",
      "outputs": [
        {
          "internalType": "string",
          "name": "",
          "type": "string"
        }
      ],
      "stateMutability": "view",
      "type": "function",
      "constant": true
    },
    {
      "inputs": [
        {
          "internalType": "address",
          "name": "account",
          "type": "address"
        },
        {
          "internalType": "address",
          "name": "operator",
          "type": "address"
        }
      ],
      "name": "isApprovedForAll",
      "outputs": [
        {
          "internalType": "bool",
          "name": "",
          "type": "bool"
        }
      ],
      "stateMutability": "view",
      "type": "function",
      "constant": true
    },
    {
      "inputs": [],
      "name": "name",
      "outputs": [
        {
          "internalType": "string",
          "name": "",
          "type": "string"
        }
      ],
      "stateMutability": "view",
      "type": "function",
      "constant": true
    },
    {
      "inputs": [],
      "name": "owner",
      "outputs": [
        {
          "internalType": "address",
          "name": "",
          "type": "address"
        }
      ],
      "stateMutability": "view",
      "type": "function",
      "constant": true
    },
    {
      "inputs": [],
      "name": "renounceOwnership",
      "outputs": [],
      "stateMutability": "nonpayable",
      "type": "function"
    },
    {
      "inputs": [
        {
          "internalType": "address",
          "name": "from",
          "type": "address"
        },
        {
          "internalType": "address",
          "name": "to",
          "type": "address"
        },
        {
          "internalType": "uint256[]",
          "name": "ids",
          "type": "uint256[]"
        },
        {
          "internalType": "uint256[]",
          "name": "amounts",
          "type": "uint256[]"
        },
        {
          "internalType": "bytes",
          "name": "data",
          "type": "bytes"
        }
      ],
      "name": "safeBatchTransferFrom",
      "outputs": [],
      "stateMutability": "nonpayable",
      "type": "function"
    },
    {
      "inputs": [
        {
          "internalType": "address",
          "name": "from",
          "type": "address"
        },
        {
          "internalType": "address",
          "name": "to",
          "type": "address"
        },
        {
          "internalType": "uint256",
          "name": "id",
          "type": "uint256"
        },
        {
          "internalType": "uint256",
          "name": "amount",
          "type": "uint256"
        },
        {
          "internalType": "bytes",
          "name": "data",
          "type": "bytes"
        }
      ],
      "name": "safeTransferFrom",
      "outputs": [],
      "stateMutability": "nonpayable",
      "type": "function"
    },
    {
      "inputs": [
        {
          "internalType": "address",
          "name": "operator",
          "type": "address"
        },
        {
          "internalType": "bool",
          "name": "approved",
          "type": "bool"
        }
      ],
      "name": "setApprovalForAll",
      "outputs": [],
      "stateMutability": "nonpayable",
      "type": "function"
    },
    {
      "inputs": [
        {
          "internalType": "bytes",
          "name": "",
          "type": "bytes"
        }
      ],
      "name": "sigs",
      "outputs": [
        {
          "internalType": "uint256",
          "name": "",
          "type": "uint256"
        }
      ],
      "stateMutability": "view",
      "type": "function",
      "constant": true
    },
    {
      "inputs": [
        {
          "internalType": "bytes4",
          "name": "interfaceId",
          "type": "bytes4"
        }
      ],
      "name": "supportsInterface",
      "outputs": [
        {
          "internalType": "bool",
          "name": "",
          "type": "bool"
        }
      ],
      "stateMutability": "view",
      "type": "function",
      "constant": true
    },
    {
      "inputs": [],
      "name": "symbol",
      "outputs": [
        {
          "internalType": "string",
          "name": "",
          "type": "string"
        }
      ],
      "stateMutability": "view",
      "type": "function",
      "constant": true
    },
    {
      "inputs": [],
      "name": "tokenCount",
      "outputs": [
        {
          "internalType": "uint256",
          "name": "",
          "type": "uint256"
        }
      ],
      "stateMutability": "view",
      "type": "function",
      "constant": true
    },
    {
      "inputs": [
        {
          "internalType": "address",
          "name": "newOwner",
          "type": "address"
        }
      ],
      "name": "transferOwnership",
      "outputs": [],
      "stateMutability": "nonpayable",
      "type": "function"
    },
    {
      "inputs": [
        {
          "internalType": "uint256",
          "name": "amount",
          "type": "uint256"
        },
        {
          "internalType": "uint256",
          "name": "id",
          "type": "uint256"
        },
        {
          "internalType": "uint256",
          "name": "rval",
          "type": "uint256"
        },
        {
          "internalType": "bytes",
          "name": "signature",
          "type": "bytes"
        }
      ],
      "name": "mint",
      "outputs": [],
      "stateMutability": "nonpayable",
      "type": "function"
    },
    {
      "inputs": [
        {
          "internalType": "uint256",
          "name": "_tokenId",
          "type": "uint256"
        }
      ],
      "name": "uri",
      "outputs": [
        {
          "internalType": "string",
          "name": "",
          "type": "string"
        }
      ],
      "stateMutability": "view",
      "type": "function",
      "constant": true
    }
  ],
  "bytecode": "0x60806040523480156200001157600080fd5b5060405162003f4238038062003f428339818101604052810190620000379190620002ca565b806200004981620000be60201b60201c565b506200006a6200005e620000da60201b60201c565b620000e260201b60201c565b826005908051906020019062000082929190620001a8565b5081600690805190602001906200009b929190620001a8565b508060089080519060200190620000b4929190620001a8565b50505050620004db565b8060029080519060200190620000d6929190620001a8565b5050565b600033905090565b6000600360009054906101000a900473ffffffffffffffffffffffffffffffffffffffff16905081600360006101000a81548173ffffffffffffffffffffffffffffffffffffffff021916908373ffffffffffffffffffffffffffffffffffffffff1602179055508173ffffffffffffffffffffffffffffffffffffffff168173ffffffffffffffffffffffffffffffffffffffff167f8be0079c531659141344cd1fd0a4f28419497f9722a3daafe3b4186f6b6457e060405160405180910390a35050565b828054620001b69062000400565b90600052602060002090601f016020900481019282620001da576000855562000226565b82601f10620001f557805160ff191683800117855562000226565b8280016001018555821562000226579182015b828111156200022557825182559160200191906001019062000208565b5b50905062000235919062000239565b5090565b5b80821115620002545760008160009055506001016200023a565b5090565b60006200026f620002698462000394565b6200036b565b9050828152602081018484840111156200028857600080fd5b62000295848285620003ca565b509392505050565b600082601f830112620002af57600080fd5b8151620002c184826020860162000258565b91505092915050565b600080600060608486031215620002e057600080fd5b600084015167ffffffffffffffff811115620002fb57600080fd5b62000309868287016200029d565b935050602084015167ffffffffffffffff8111156200032757600080fd5b62000335868287016200029d565b925050604084015167ffffffffffffffff8111156200035357600080fd5b62000361868287016200029d565b9150509250925092565b6000620003776200038a565b905062000385828262000436565b919050565b6000604051905090565b600067ffffffffffffffff821115620003b257620003b16200049b565b5b620003bd82620004ca565b9050602081019050919050565b60005b83811015620003ea578082015181840152602081019050620003cd565b83811115620003fa576000848401525b50505050565b600060028204905060018216806200041957607f821691505b6020821081141562000430576200042f6200046c565b5b50919050565b6200044182620004ca565b810181811067ffffffffffffffff821117156200046357620004626200049b565b5b80604052505050565b7f4e487b7100000000000000000000000000000000000000000000000000000000600052602260045260246000fd5b7f4e487b7100000000000000000000000000000000000000000000000000000000600052604160045260246000fd5b6000601f19601f8301169050919050565b613a5780620004eb6000396000f3fe608060405234801561001057600080fd5b50600436106101155760003560e01c80638da5cb5b116100a2578063a22cb46511610071578063a22cb465146102e2578063e985e9c5146102fe578063f242432a1461032e578063f2fde38b1461034a578063f851a4401461036657610115565b80638da5cb5b1461026a57806395d89b41146102885780639abc8320146102a65780639f181b5e146102c457610115565b80632eb2c2d6116100e95780632eb2c2d6146101c85780634a9eee69146101e45780634e1273f4146102005780636f0b6e4214610230578063715018a61461026057610115565b8062fdd58e1461011a57806301ffc9a71461014a57806306fdde031461017a5780630e89341c14610198575b600080fd5b610134600480360381019061012f9190612480565b610384565b6040516101419190612f82565b60405180910390f35b610164600480360381019061015f9190612528565b61044d565b6040516101719190612d00565b60405180910390f35b61018261052f565b60405161018f9190612d60565b60405180910390f35b6101b260048036038101906101ad91906125bb565b6105bd565b6040516101bf9190612d60565b60405180910390f35b6101e260048036038101906101dd91906122f6565b6105f1565b005b6101fe60048036038101906101f991906125e4565b610692565b005b61021a600480360381019061021591906124bc565b610899565b6040516102279190612ca7565b60405180910390f35b61024a6004803603810190610245919061257a565b610a4a565b6040516102579190612f82565b60405180910390f35b610268610a78565b005b610272610a8c565b60405161027f9190612bca565b60405180910390f35b610290610ab6565b60405161029d9190612d60565b60405180910390f35b6102ae610b44565b6040516102bb9190612d60565b60405180910390f35b6102cc610bd2565b6040516102d99190612f82565b60405180910390f35b6102fc60048036038101906102f79190612444565b610bd8565b005b610318600480360381019061031391906122ba565b610bee565b6040516103259190612d00565b60405180910390f35b610348600480360381019061034391906123b5565b610c82565b005b610364600480360381019061035f9190612291565b610d23565b005b61036e610da7565b60405161037b9190612bca565b60405180910390f35b60008073ffffffffffffffffffffffffffffffffffffffff168373ffffffffffffffffffffffffffffffffffffffff1614156103f5576040517f08c379a00000000000000000000000000000000000000000000000000000000081526004016103ec90612e22565b60405180910390fd5b60008083815260200190815260200160002060008473ffffffffffffffffffffffffffffffffffffffff1673ffffffffffffffffffffffffffffffffffffffff16815260200190815260200160002054905092915050565b60007fd9b67a26000000000000000000000000000000000000000000000000000000007bffffffffffffffffffffffffffffffffffffffffffffffffffffffff1916827bffffffffffffffffffffffffffffffffffffffffffffffffffffffff1916148061051857507f0e89341c000000000000000000000000000000000000000000000000000000007bffffffffffffffffffffffffffffffffffffffffffffffffffffffff1916827bffffffffffffffffffffffffffffffffffffffffffffffffffffffff1916145b80610528575061052782610dcd565b5b9050919050565b6005805461053c90613298565b80601f016020809104026020016040519081016040528092919081815260200182805461056890613298565b80156105b55780601f1061058a576101008083540402835291602001916105b5565b820191906000526020600020905b81548152906001019060200180831161059857829003601f168201915b505050505081565b606060086105ca83610e37565b6040516020016105db929190612b38565b6040516020818303038152906040529050919050565b6105f9610fe4565b73ffffffffffffffffffffffffffffffffffffffff168573ffffffffffffffffffffffffffffffffffffffff16148061063f575061063e85610639610fe4565b610bee565b5b61067e576040517f08c379a000000000000000000000000000000000000000000000000000000000815260040161067590612da2565b60405180910390fd5b61068b8585858585610fec565b5050505050565b61069a610a8c565b73ffffffffffffffffffffffffffffffffffffffff166107086106be87878761135a565b84848080601f016020809104026020016040519081016040528093929190818152602001838380828437600081840152601f19601f8201169050808301925050505050505061139d565b73ffffffffffffffffffffffffffffffffffffffff161461075e576040517f08c379a000000000000000000000000000000000000000000000000000000000815260040161075590612f62565b60405180910390fd5b600060098383604051610772929190612b1f565b908152602001604051809103902054146107c1576040517f08c379a00000000000000000000000000000000000000000000000000000000081526004016107b890612de2565b60405180910390fd5b60018514610804576040517f08c379a00000000000000000000000000000000000000000000000000000000081526004016107fb90612ea2565b60405180910390fd5b60016108103386610384565b1115610851576040517f08c379a000000000000000000000000000000000000000000000000000000000815260040161084890612f42565b60405180910390fd5b600160098383604051610865929190612b1f565b90815260200160405180910390208190555061089233858760405180602001604052806000815250611412565b5050505050565b606081518351146108df576040517f08c379a00000000000000000000000000000000000000000000000000000000081526004016108d690612ee2565b60405180910390fd5b6000835167ffffffffffffffff811115610922577f4e487b7100000000000000000000000000000000000000000000000000000000600052604160045260246000fd5b6040519080825280602002602001820160405280156109505781602001602082028036833780820191505090505b50905060005b8451811015610a3f576109e985828151811061099b577f4e487b7100000000000000000000000000000000000000000000000000000000600052603260045260246000fd5b60200260200101518583815181106109dc577f4e487b7100000000000000000000000000000000000000000000000000000000600052603260045260246000fd5b6020026020010151610384565b828281518110610a22577f4e487b7100000000000000000000000000000000000000000000000000000000600052603260045260246000fd5b60200260200101818152505080610a38906132fb565b9050610956565b508091505092915050565b6009818051602081018201805184825260208301602085012081835280955050505050506000915090505481565b610a806115c3565b610a8a6000611641565b565b6000600360009054906101000a900473ffffffffffffffffffffffffffffffffffffffff16905090565b60068054610ac390613298565b80601f0160208091040260200160405190810160405280929190818152602001828054610aef90613298565b8015610b3c5780601f10610b1157610100808354040283529160200191610b3c565b820191906000526020600020905b815481529060010190602001808311610b1f57829003601f168201915b505050505081565b60088054610b5190613298565b80601f0160208091040260200160405190810160405280929190818152602001828054610b7d90613298565b8015610bca5780601f10610b9f57610100808354040283529160200191610bca565b820191906000526020600020905b815481529060010190602001808311610bad57829003601f168201915b505050505081565b60075481565b610bea610be3610fe4565b8383611707565b5050565b6000600160008473ffffffffffffffffffffffffffffffffffffffff1673ffffffffffffffffffffffffffffffffffffffff16815260200190815260200160002060008373ffffffffffffffffffffffffffffffffffffffff1673ffffffffffffffffffffffffffffffffffffffff16815260200190815260200160002060009054906101000a900460ff16905092915050565b610c8a610fe4565b73ffffffffffffffffffffffffffffffffffffffff168573ffffffffffffffffffffffffffffffffffffffff161480610cd05750610ccf85610cca610fe4565b610bee565b5b610d0f576040517f08c379a0000000000000000000000000000000000000000000000000000000008152600401610d0690612da2565b60405180910390fd5b610d1c8585858585611874565b5050505050565b610d2b6115c3565b600073ffffffffffffffffffffffffffffffffffffffff168173ffffffffffffffffffffffffffffffffffffffff161415610d9b576040517f08c379a0000000000000000000000000000000000000000000000000000000008152600401610d9290612e02565b60405180910390fd5b610da481611641565b50565b600460009054906101000a900473ffffffffffffffffffffffffffffffffffffffff1681565b60007f01ffc9a7000000000000000000000000000000000000000000000000000000007bffffffffffffffffffffffffffffffffffffffffffffffffffffffff1916827bffffffffffffffffffffffffffffffffffffffffffffffffffffffff1916149050919050565b60606000821415610e7f576040518060400160405280600181526020017f30000000000000000000000000000000000000000000000000000000000000008152509050610fdf565b600082905060005b60008214610eb1578080610e9a906132fb565b915050600a82610eaa9190613166565b9150610e87565b60008167ffffffffffffffff811115610ef3577f4e487b7100000000000000000000000000000000000000000000000000000000600052604160045260246000fd5b6040519080825280601f01601f191660200182016040528015610f255781602001600182028036833780820191505090505b5090505b60008514610fd857600182610f3e9190613197565b9150600a85610f4d9190613358565b6030610f599190613110565b60f81b818381518110610f95577f4e487b7100000000000000000000000000000000000000000000000000000000600052603260045260246000fd5b60200101907effffffffffffffffffffffffffffffffffffffffffffffffffffffffffffff1916908160001a905350600a85610fd19190613166565b9450610f29565b8093505050505b919050565b600033905090565b8151835114611030576040517f08c379a000000000000000000000000000000000000000000000000000000000815260040161102790612f02565b60405180910390fd5b600073ffffffffffffffffffffffffffffffffffffffff168473ffffffffffffffffffffffffffffffffffffffff1614156110a0576040517f08c379a000000000000000000000000000000000000000000000000000000000815260040161109790612e42565b60405180910390fd5b60006110aa610fe4565b90506110ba818787878787611b10565b60005b84518110156112b7576000858281518110611101577f4e487b7100000000000000000000000000000000000000000000000000000000600052603260045260246000fd5b602002602001015190506000858381518110611146577f4e487b7100000000000000000000000000000000000000000000000000000000600052603260045260246000fd5b60200260200101519050600080600084815260200190815260200160002060008b73ffffffffffffffffffffffffffffffffffffffff1673ffffffffffffffffffffffffffffffffffffffff168152602001908152602001600020549050818110156111e7576040517f08c379a00000000000000000000000000000000000000000000000000000000081526004016111de90612e62565b60405180910390fd5b81810360008085815260200190815260200160002060008c73ffffffffffffffffffffffffffffffffffffffff1673ffffffffffffffffffffffffffffffffffffffff168152602001908152602001600020819055508160008085815260200190815260200160002060008b73ffffffffffffffffffffffffffffffffffffffff1673ffffffffffffffffffffffffffffffffffffffff168152602001908152602001600020600082825461129c9190613110565b92505081905550505050806112b0906132fb565b90506110bd565b508473ffffffffffffffffffffffffffffffffffffffff168673ffffffffffffffffffffffffffffffffffffffff168273ffffffffffffffffffffffffffffffffffffffff167f4a39dc06d4c0dbc64b70af90fd698a233a518aa5d07e595d983b8c0526c8f7fb878760405161132e929190612cc9565b60405180910390a4611344818787878787611b18565b611352818787878787611b20565b505050505050565b60008061139085858560405160200161137593929190612b8d565b60405160208183030381529060405280519060200120611d07565b9050809150509392505050565b6000806000806113ac85611d37565b809350819450829550505050600186848484604051600081526020016040526040516113db9493929190612d1b565b6020604051602081039080840390855afa1580156113fd573d6000803e3d6000fd5b50505060206040510351935050505092915050565b600073ffffffffffffffffffffffffffffffffffffffff168473ffffffffffffffffffffffffffffffffffffffff161415611482576040517f08c379a000000000000000000000000000000000000000000000000000000000815260040161147990612f22565b60405180910390fd5b600061148c610fe4565b9050600061149985611d7a565b905060006114a685611d7a565b90506114b783600089858589611b10565b8460008088815260200190815260200160002060008973ffffffffffffffffffffffffffffffffffffffff1673ffffffffffffffffffffffffffffffffffffffff16815260200190815260200160002060008282546115169190613110565b925050819055508673ffffffffffffffffffffffffffffffffffffffff16600073ffffffffffffffffffffffffffffffffffffffff168473ffffffffffffffffffffffffffffffffffffffff167fc3d58168c5ae7397731d063d5bbf3d657854427343f4c083240f7aacaa2d0f628989604051611594929190612f9d565b60405180910390a46115ab83600089858589611b18565b6115ba83600089898989611e40565b50505050505050565b6115cb610fe4565b73ffffffffffffffffffffffffffffffffffffffff166115e9610a8c565b73ffffffffffffffffffffffffffffffffffffffff161461163f576040517f08c379a000000000000000000000000000000000000000000000000000000000815260040161163690612e82565b60405180910390fd5b565b6000600360009054906101000a900473ffffffffffffffffffffffffffffffffffffffff16905081600360006101000a81548173ffffffffffffffffffffffffffffffffffffffff021916908373ffffffffffffffffffffffffffffffffffffffff1602179055508173ffffffffffffffffffffffffffffffffffffffff168173ffffffffffffffffffffffffffffffffffffffff167f8be0079c531659141344cd1fd0a4f28419497f9722a3daafe3b4186f6b6457e060405160405180910390a35050565b8173ffffffffffffffffffffffffffffffffffffffff168373ffffffffffffffffffffffffffffffffffffffff161415611776576040517f08c379a000000000000000000000000000000000000000000000000000000000815260040161176d90612ec2565b60405180910390fd5b80600160008573ffffffffffffffffffffffffffffffffffffffff1673ffffffffffffffffffffffffffffffffffffffff16815260200190815260200160002060008473ffffffffffffffffffffffffffffffffffffffff1673ffffffffffffffffffffffffffffffffffffffff16815260200190815260200160002060006101000a81548160ff0219169083151502179055508173ffffffffffffffffffffffffffffffffffffffff168373ffffffffffffffffffffffffffffffffffffffff167f17307eab39ab6107e8899845ad3d59bd9653f200f220920489ca2b5937696c31836040516118679190612d00565b60405180910390a3505050565b600073ffffffffffffffffffffffffffffffffffffffff168473ffffffffffffffffffffffffffffffffffffffff1614156118e4576040517f08c379a00000000000000000000000000000000000000000000000000000000081526004016118db90612e42565b60405180910390fd5b60006118ee610fe4565b905060006118fb85611d7a565b9050600061190885611d7a565b9050611918838989858589611b10565b600080600088815260200190815260200160002060008a73ffffffffffffffffffffffffffffffffffffffff1673ffffffffffffffffffffffffffffffffffffffff168152602001908152602001600020549050858110156119af576040517f08c379a00000000000000000000000000000000000000000000000000000000081526004016119a690612e62565b60405180910390fd5b85810360008089815260200190815260200160002060008b73ffffffffffffffffffffffffffffffffffffffff1673ffffffffffffffffffffffffffffffffffffffff168152602001908152602001600020819055508560008089815260200190815260200160002060008a73ffffffffffffffffffffffffffffffffffffffff1673ffffffffffffffffffffffffffffffffffffffff1681526020019081526020016000206000828254611a649190613110565b925050819055508773ffffffffffffffffffffffffffffffffffffffff168973ffffffffffffffffffffffffffffffffffffffff168573ffffffffffffffffffffffffffffffffffffffff167fc3d58168c5ae7397731d063d5bbf3d657854427343f4c083240f7aacaa2d0f628a8a604051611ae1929190612f9d565b60405180910390a4611af7848a8a86868a611b18565b611b05848a8a8a8a8a611e40565b505050505050505050565b505050505050565b505050505050565b611b3f8473ffffffffffffffffffffffffffffffffffffffff16612027565b15611cff578373ffffffffffffffffffffffffffffffffffffffff1663bc197c8187878686866040518663ffffffff1660e01b8152600401611b85959493929190612be5565b602060405180830381600087803b158015611b9f57600080fd5b505af1925050508015611bd057506040513d601f19601f82011682018060405250810190611bcd9190612551565b60015b611c7657611bdc613445565b806308c379a01415611c395750611bf161392f565b80611bfc5750611c3b565b806040517f08c379a0000000000000000000000000000000000000000000000000000000008152600401611c309190612d60565b60405180910390fd5b505b6040517f08c379a0000000000000000000000000000000000000000000000000000000008152600401611c6d90612d82565b60405180910390fd5b63bc197c8160e01b7bffffffffffffffffffffffffffffffffffffffffffffffffffffffff1916817bffffffffffffffffffffffffffffffffffffffffffffffffffffffff191614611cfd576040517f08c379a0000000000000000000000000000000000000000000000000000000008152600401611cf490612dc2565b60405180910390fd5b505b505050505050565b600081604051602001611d1a9190612b67565b604051602081830303815290604052805190602001209050919050565b60008060006041845114611d4a57600080fd5b60008060006020870151925060408701519150606087015160001a90508083839550955095505050509193909250565b60606000600167ffffffffffffffff811115611dbf577f4e487b7100000000000000000000000000000000000000000000000000000000600052604160045260246000fd5b604051908082528060200260200182016040528015611ded5781602001602082028036833780820191505090505b5090508281600081518110611e2b577f4e487b7100000000000000000000000000000000000000000000000000000000600052603260045260246000fd5b60200260200101818152505080915050919050565b611e5f8473ffffffffffffffffffffffffffffffffffffffff16612027565b1561201f578373ffffffffffffffffffffffffffffffffffffffff1663f23a6e6187878686866040518663ffffffff1660e01b8152600401611ea5959493929190612c4d565b602060405180830381600087803b158015611ebf57600080fd5b505af1925050508015611ef057506040513d601f19601f82011682018060405250810190611eed9190612551565b60015b611f9657611efc613445565b806308c379a01415611f595750611f1161392f565b80611f1c5750611f5b565b806040517f08c379a0000000000000000000000000000000000000000000000000000000008152600401611f509190612d60565b60405180910390fd5b505b6040517f08c379a0000000000000000000000000000000000000000000000000000000008152600401611f8d90612d82565b60405180910390fd5b63f23a6e6160e01b7bffffffffffffffffffffffffffffffffffffffffffffffffffffffff1916817bffffffffffffffffffffffffffffffffffffffffffffffffffffffff19161461201d576040517f08c379a000000000000000000000000000000000000000000000000000000000815260040161201490612dc2565b60405180910390fd5b505b505050505050565b6000808273ffffffffffffffffffffffffffffffffffffffff163b119050919050565b600061205d61205884612feb565b612fc6565b9050808382526020820190508285602086028201111561207c57600080fd5b60005b858110156120ac57816120928882612160565b84526020840193506020830192505060018101905061207f565b5050509392505050565b60006120c96120c484613017565b612fc6565b905080838252602082019050828560208602820111156120e857600080fd5b60005b8581101561211857816120fe888261227c565b8452602084019350602083019250506001810190506120eb565b5050509392505050565b600061213561213084613043565b612fc6565b90508281526020810184848401111561214d57600080fd5b612158848285613256565b509392505050565b60008135905061216f816139c5565b92915050565b600082601f83011261218657600080fd5b813561219684826020860161204a565b91505092915050565b600082601f8301126121b057600080fd5b81356121c08482602086016120b6565b91505092915050565b6000813590506121d8816139dc565b92915050565b6000813590506121ed816139f3565b92915050565b600081519050612202816139f3565b92915050565b60008083601f84011261221a57600080fd5b8235905067ffffffffffffffff81111561223357600080fd5b60208301915083600182028301111561224b57600080fd5b9250929050565b600082601f83011261226357600080fd5b8135612273848260208601612122565b91505092915050565b60008135905061228b81613a0a565b92915050565b6000602082840312156122a357600080fd5b60006122b184828501612160565b91505092915050565b600080604083850312156122cd57600080fd5b60006122db85828601612160565b92505060206122ec85828601612160565b9150509250929050565b600080600080600060a0868803121561230e57600080fd5b600061231c88828901612160565b955050602061232d88828901612160565b945050604086013567ffffffffffffffff81111561234a57600080fd5b6123568882890161219f565b935050606086013567ffffffffffffffff81111561237357600080fd5b61237f8882890161219f565b925050608086013567ffffffffffffffff81111561239c57600080fd5b6123a888828901612252565b9150509295509295909350565b600080600080600060a086880312156123cd57600080fd5b60006123db88828901612160565b95505060206123ec88828901612160565b94505060406123fd8882890161227c565b935050606061240e8882890161227c565b925050608086013567ffffffffffffffff81111561242b57600080fd5b61243788828901612252565b9150509295509295909350565b6000806040838503121561245757600080fd5b600061246585828601612160565b9250506020612476858286016121c9565b9150509250929050565b6000806040838503121561249357600080fd5b60006124a185828601612160565b92505060206124b28582860161227c565b9150509250929050565b600080604083850312156124cf57600080fd5b600083013567ffffffffffffffff8111156124e957600080fd5b6124f585828601612175565b925050602083013567ffffffffffffffff81111561251257600080fd5b61251e8582860161219f565b9150509250929050565b60006020828403121561253a57600080fd5b6000612548848285016121de565b91505092915050565b60006020828403121561256357600080fd5b6000612571848285016121f3565b91505092915050565b60006020828403121561258c57600080fd5b600082013567ffffffffffffffff8111156125a657600080fd5b6125b284828501612252565b91505092915050565b6000602082840312156125cd57600080fd5b60006125db8482850161227c565b91505092915050565b6000806000806000608086880312156125fc57600080fd5b600061260a8882890161227c565b955050602061261b8882890161227c565b945050604061262c8882890161227c565b935050606086013567ffffffffffffffff81111561264957600080fd5b61265588828901612208565b92509250509295509295909350565b60006126708383612adb565b60208301905092915050565b612685816131cb565b82525050565b600061269682613099565b6126a081856130c7565b93506126ab83613074565b8060005b838110156126dc5781516126c38882612664565b97506126ce836130ba565b9250506001810190506126af565b5085935050505092915050565b6126f2816131dd565b82525050565b612701816131e9565b82525050565b612718612713826131e9565b613344565b82525050565b600061272a83856130e9565b9350612737838584613256565b82840190509392505050565b600061274e826130a4565b61275881856130d8565b9350612768818560208601613265565b61277181613467565b840191505092915050565b6000612787826130af565b61279181856130f4565b93506127a1818560208601613265565b6127aa81613467565b840191505092915050565b60006127c0826130af565b6127ca8185613105565b93506127da818560208601613265565b80840191505092915050565b600081546127f381613298565b6127fd8186613105565b9450600182166000811461281857600181146128295761285c565b60ff1983168652818601935061285c565b61283285613084565b60005b8381101561285457815481890152600182019150602081019050612835565b838801955050505b50505092915050565b60006128726034836130f4565b915061287d82613485565b604082019050919050565b6000612895602f836130f4565b91506128a0826134d4565b604082019050919050565b60006128b86028836130f4565b91506128c382613523565b604082019050919050565b60006128db6011836130f4565b91506128e682613572565b602082019050919050565b60006128fe601c83613105565b91506129098261359b565b601c82019050919050565b60006129216026836130f4565b915061292c826135c4565b604082019050919050565b6000612944602a836130f4565b915061294f82613613565b604082019050919050565b60006129676025836130f4565b915061297282613662565b604082019050919050565b600061298a602a836130f4565b9150612995826136b1565b604082019050919050565b60006129ad600583613105565b91506129b882613700565b600582019050919050565b60006129d06020836130f4565b91506129db82613729565b602082019050919050565b60006129f36027836130f4565b91506129fe82613752565b604082019050919050565b6000612a166029836130f4565b9150612a21826137a1565b604082019050919050565b6000612a396029836130f4565b9150612a44826137f0565b604082019050919050565b6000612a5c6028836130f4565b9150612a678261383f565b604082019050919050565b6000612a7f6021836130f4565b9150612a8a8261388e565b604082019050919050565b6000612aa2601b836130f4565b9150612aad826138dd565b602082019050919050565b6000612ac5600f836130f4565b9150612ad082613906565b602082019050919050565b612ae48161323f565b82525050565b612af38161323f565b82525050565b612b0a612b058261323f565b61334e565b82525050565b612b1981613249565b82525050565b6000612b2c82848661271e565b91508190509392505050565b6000612b4482856127e6565b9150612b5082846127b5565b9150612b5b826129a0565b91508190509392505050565b6000612b72826128f1565b9150612b7e8284612707565b60208201915081905092915050565b6000612b998286612af9565b602082019150612ba98285612af9565b602082019150612bb98284612af9565b602082019150819050949350505050565b6000602082019050612bdf600083018461267c565b92915050565b600060a082019050612bfa600083018861267c565b612c07602083018761267c565b8181036040830152612c19818661268b565b90508181036060830152612c2d818561268b565b90508181036080830152612c418184612743565b90509695505050505050565b600060a082019050612c62600083018861267c565b612c6f602083018761267c565b612c7c6040830186612aea565b612c896060830185612aea565b8181036080830152612c9b8184612743565b90509695505050505050565b60006020820190508181036000830152612cc1818461268b565b905092915050565b60006040820190508181036000830152612ce3818561268b565b90508181036020830152612cf7818461268b565b90509392505050565b6000602082019050612d1560008301846126e9565b92915050565b6000608082019050612d3060008301876126f8565b612d3d6020830186612b10565b612d4a60408301856126f8565b612d5760608301846126f8565b95945050505050565b60006020820190508181036000830152612d7a818461277c565b905092915050565b60006020820190508181036000830152612d9b81612865565b9050919050565b60006020820190508181036000830152612dbb81612888565b9050919050565b60006020820190508181036000830152612ddb816128ab565b9050919050565b60006020820190508181036000830152612dfb816128ce565b9050919050565b60006020820190508181036000830152612e1b81612914565b9050919050565b60006020820190508181036000830152612e3b81612937565b9050919050565b60006020820190508181036000830152612e5b8161295a565b9050919050565b60006020820190508181036000830152612e7b8161297d565b9050919050565b60006020820190508181036000830152612e9b816129c3565b9050919050565b60006020820190508181036000830152612ebb816129e6565b9050919050565b60006020820190508181036000830152612edb81612a09565b9050919050565b60006020820190508181036000830152612efb81612a2c565b9050919050565b60006020820190508181036000830152612f1b81612a4f565b9050919050565b60006020820190508181036000830152612f3b81612a72565b9050919050565b60006020820190508181036000830152612f5b81612a95565b9050919050565b60006020820190508181036000830152612f7b81612ab8565b9050919050565b6000602082019050612f976000830184612aea565b92915050565b6000604082019050612fb26000830185612aea565b612fbf6020830184612aea565b9392505050565b6000612fd0612fe1565b9050612fdc82826132ca565b919050565b6000604051905090565b600067ffffffffffffffff82111561300657613005613416565b5b602082029050602081019050919050565b600067ffffffffffffffff82111561303257613031613416565b5b602082029050602081019050919050565b600067ffffffffffffffff82111561305e5761305d613416565b5b61306782613467565b9050602081019050919050565b6000819050602082019050919050565b60008190508160005260206000209050919050565b600081519050919050565b600081519050919050565b600081519050919050565b6000602082019050919050565b600082825260208201905092915050565b600082825260208201905092915050565b600081905092915050565b600082825260208201905092915050565b600081905092915050565b600061311b8261323f565b91506131268361323f565b9250827fffffffffffffffffffffffffffffffffffffffffffffffffffffffffffffffff0382111561315b5761315a613389565b5b828201905092915050565b60006131718261323f565b915061317c8361323f565b92508261318c5761318b6133b8565b5b828204905092915050565b60006131a28261323f565b91506131ad8361323f565b9250828210156131c0576131bf613389565b5b828203905092915050565b60006131d68261321f565b9050919050565b60008115159050919050565b6000819050919050565b60007fffffffff0000000000000000000000000000000000000000000000000000000082169050919050565b600073ffffffffffffffffffffffffffffffffffffffff82169050919050565b6000819050919050565b600060ff82169050919050565b82818337600083830152505050565b60005b83811015613283578082015181840152602081019050613268565b83811115613292576000848401525b50505050565b600060028204905060018216806132b057607f821691505b602082108114156132c4576132c36133e7565b5b50919050565b6132d382613467565b810181811067ffffffffffffffff821117156132f2576132f1613416565b5b80604052505050565b60006133068261323f565b91507fffffffffffffffffffffffffffffffffffffffffffffffffffffffffffffffff82141561333957613338613389565b5b600182019050919050565b6000819050919050565b6000819050919050565b60006133638261323f565b915061336e8361323f565b92508261337e5761337d6133b8565b5b828206905092915050565b7f4e487b7100000000000000000000000000000000000000000000000000000000600052601160045260246000fd5b7f4e487b7100000000000000000000000000000000000000000000000000000000600052601260045260246000fd5b7f4e487b7100000000000000000000000000000000000000000000000000000000600052602260045260246000fd5b7f4e487b7100000000000000000000000000000000000000000000000000000000600052604160045260246000fd5b600060033d11156134645760046000803e613461600051613478565b90505b90565b6000601f19601f8301169050919050565b60008160e01c9050919050565b7f455243313135353a207472616e7366657220746f206e6f6e204552433131353560008201527f526563656976657220696d706c656d656e746572000000000000000000000000602082015250565b7f455243313135353a2063616c6c6572206973206e6f7420746f6b656e206f776e60008201527f6572206e6f7220617070726f7665640000000000000000000000000000000000602082015250565b7f455243313135353a204552433131353552656365697665722072656a6563746560008201527f6420746f6b656e73000000000000000000000000000000000000000000000000602082015250565b7f616c7265616479207369676e6174757265000000000000000000000000000000600082015250565b7f19457468657265756d205369676e6564204d6573736167653a0a333200000000600082015250565b7f4f776e61626c653a206e6577206f776e657220697320746865207a65726f206160008201527f6464726573730000000000000000000000000000000000000000000000000000602082015250565b7f455243313135353a2061646472657373207a65726f206973206e6f742061207660008201527f616c6964206f776e657200000000000000000000000000000000000000000000602082015250565b7f455243313135353a207472616e7366657220746f20746865207a65726f20616460008201527f6472657373000000000000000000000000000000000000000000000000000000602082015250565b7f455243313135353a20696e73756666696369656e742062616c616e636520666f60008201527f72207472616e7366657200000000000000000000000000000000000000000000602082015250565b7f2e6a736f6e000000000000000000000000000000000000000000000000000000600082015250565b7f4f776e61626c653a2063616c6c6572206973206e6f7420746865206f776e6572600082015250565b7f4f6e6c79206f6e6520746f6b656e2063616e206265206d696e7465642061742060008201527f612074696d652100000000000000000000000000000000000000000000000000602082015250565b7f455243313135353a2073657474696e6720617070726f76616c2073746174757360008201527f20666f722073656c660000000000000000000000000000000000000000000000602082015250565b7f455243313135353a206163636f756e747320616e6420696473206c656e67746860008201527f206d69736d617463680000000000000000000000000000000000000000000000602082015250565b7f455243313135353a2069647320616e6420616d6f756e7473206c656e6774682060008201527f6d69736d61746368000000000000000000000000000000000000000000000000602082015250565b7f455243313135353a206d696e7420746f20746865207a65726f2061646472657360008201527f7300000000000000000000000000000000000000000000000000000000000000602082015250565b7f4d61782062616c616e636520666f7220746f6b656e2069732031210000000000600082015250565b7f77726f6e67207369676e61747572650000000000000000000000000000000000600082015250565b600060443d101561393f576139c2565b613947612fe1565b60043d036004823e80513d602482011167ffffffffffffffff8211171561396f5750506139c2565b808201805167ffffffffffffffff81111561398d57505050506139c2565b80602083010160043d0385018111156139aa5750505050506139c2565b6139b9826020018501866132ca565b82955050505050505b90565b6139ce816131cb565b81146139d957600080fd5b50565b6139e5816131dd565b81146139f057600080fd5b50565b6139fc816131f3565b8114613a0757600080fd5b50565b613a138161323f565b8114613a1e57600080fd5b5056fea2646970667358221220068d9ddb2ae3161c9d4a78b60c8b660cb815229c38773da6db3bcbe89b23ad7f64736f6c63430008020033",
  "immutableReferences": {},
  "source": "// SPDX-License-Identifier: MIT\r\npragma solidity ^0.8.2;\r\n\r\nimport \"@openzeppelin/contracts/token/ERC1155/ERC1155.sol\";\r\nimport \"@openzeppelin/contracts/access/Ownable.sol\";\r\nimport \"@openzeppelin/contracts/utils/Strings.sol\";\r\n\r\ncontract ChefWopNFT is ERC1155, Ownable {\r\n\r\n    address public admin;\r\n    string public name;\r\n    string public symbol;\r\n    uint256 public tokenCount;\r\n    string public baseUri;\r\n    mapping(bytes => uint) public sigs;\r\n\r\n    constructor(string memory _name, string memory _symbol, string memory _baseUri) ERC1155(_baseUri) {\r\n        name = _name;\r\n        symbol = _symbol;\r\n        baseUri = _baseUri;\r\n    }\r\n\r\n    function mint(uint256 amount, uint256 id, uint256 rval, bytes calldata signature) public {\r\n        require(recoverSigner(kekkaMessage(amount, id, rval), signature) == owner() , 'wrong signature');\r\n        require(sigs[signature] == 0, 'already signature');\r\n        require(amount==1, \"Only one token can be minted at a time!\");\r\n        require(balanceOf(msg.sender, id) <= 1, \"Max balance for token is 1!\");\r\n        sigs[signature] = 1;\r\n        _mint(msg.sender, id, amount, \"\");\r\n    }\r\n\r\n    function uri(uint256 _tokenId) override public view returns(string memory) {\r\n        return string(\r\n                abi.encodePacked(\r\n                        baseUri,\r\n                        Strings.toString(_tokenId),\r\n                        \".json\"\r\n                    )\r\n            );\r\n    }\r\n\r\n    function prefixed(bytes32 hash) internal pure returns (bytes32) {\r\n      return keccak256(abi.encodePacked(\r\n        '\\x19Ethereum Signed Message:\\n32',\r\n        hash\r\n      ));\r\n    }\r\n\r\n    function kekkaMessage(uint256 amount, uint256 id, uint256 rval) internal pure returns (bytes32) {\r\n      bytes32 message = prefixed(keccak256(abi.encodePacked(amount, id, rval)));\r\n      return message;\r\n    }\r\n\r\n    function recoverSigner(bytes32 message, bytes memory sig) internal pure returns (address) {\r\n      uint8 v;\r\n      bytes32 r;\r\n      bytes32 s;\r\n      (v, r, s) = splitSignature(sig);\r\n      return ecrecover(message, v, r, s);\r\n    }\r\n\r\n    function splitSignature(bytes memory sig) internal pure returns (uint8, bytes32, bytes32) {\r\n      require(sig.length == 65);\r\n      bytes32 r;\r\n      bytes32 s;\r\n      uint8 v;\r\n      assembly {\r\n          // first 32 bytes, after the length prefix\r\n          r := mload(add(sig, 32))\r\n          // second 32 bytes\r\n          s := mload(add(sig, 64))\r\n          // final byte (first byte of the next 32 bytes)\r\n          v := byte(0, mload(add(sig, 96)))\r\n      }\r\n      return (v, r, s);\r\n    }\r\n\r\n}\r\n",
  "sourcePath": "D:/_GITHUB_DEMO/chefwopNFT/contracts/chefwopNFT.sol",
  "compiler": {
    "name": "solc",
    "version": "0.8.2+commit.661d1103.Emscripten.clang"
  },
  "schemaVersion": "3.3.4",
  "updatedAt": "2022-07-07T12:44:32.946Z",
  "networkType": "ethereum",
  "devdoc": {
    "kind": "dev",
    "methods": {
      "balanceOf(address,uint256)": {
        "details": "See {IERC1155-balanceOf}. Requirements: - `account` cannot be the zero address."
      },
      "balanceOfBatch(address[],uint256[])": {
        "details": "See {IERC1155-balanceOfBatch}. Requirements: - `accounts` and `ids` must have the same length."
      },
      "isApprovedForAll(address,address)": {
        "details": "See {IERC1155-isApprovedForAll}."
      },
      "owner()": {
        "details": "Returns the address of the current owner."
      },
      "renounceOwnership()": {
        "details": "Leaves the contract without owner. It will not be possible to call `onlyOwner` functions anymore. Can only be called by the current owner. NOTE: Renouncing ownership will leave the contract without an owner, thereby removing any functionality that is only available to the owner."
      },
      "safeBatchTransferFrom(address,address,uint256[],uint256[],bytes)": {
        "details": "See {IERC1155-safeBatchTransferFrom}."
      },
      "safeTransferFrom(address,address,uint256,uint256,bytes)": {
        "details": "See {IERC1155-safeTransferFrom}."
      },
      "setApprovalForAll(address,bool)": {
        "details": "See {IERC1155-setApprovalForAll}."
      },
      "supportsInterface(bytes4)": {
        "details": "See {IERC165-supportsInterface}."
      },
      "transferOwnership(address)": {
        "details": "Transfers ownership of the contract to a new account (`newOwner`). Can only be called by the current owner."
      }
    },
    "version": 1
  },
  "userdoc": {
    "kind": "user",
    "methods": {},
    "version": 1
  }
}