{
  "contractName": "ChefWopNFT",
  "abi": [
    {
      "inputs": [
        {
          "internalType": "string",
          "name": "_name",
          "type": "string"
        },
        {
          "internalType": "string",
          "name": "_symbol",
          "type": "string"
        },
        {
          "internalType": "string",
          "name": "_baseUri",
          "type": "string"
        }
      ],
      "stateMutability": "nonpayable",
      "type": "constructor"
    },
    {
      "anonymous": false,
      "inputs": [
        {
          "indexed": true,
          "internalType": "address",
          "name": "account",
          "type": "address"
        },
        {
          "indexed": true,
          "internalType": "address",
          "name": "operator",
          "type": "address"
        },
        {
          "indexed": false,
          "internalType": "bool",
          "name": "approved",
          "type": "bool"
        }
      ],
      "name": "ApprovalForAll",
      "type": "event"
    },
    {
      "anonymous": false,
      "inputs": [
        {
          "indexed": true,
          "internalType": "address",
          "name": "previousOwner",
          "type": "address"
        },
        {
          "indexed": true,
          "internalType": "address",
          "name": "newOwner",
          "type": "address"
        }
      ],
      "name": "OwnershipTransferred",
      "type": "event"
    },
    {
      "anonymous": false,
      "inputs": [
        {
          "indexed": true,
          "internalType": "address",
          "name": "operator",
          "type": "address"
        },
        {
          "indexed": true,
          "internalType": "address",
          "name": "from",
          "type": "address"
        },
        {
          "indexed": true,
          "internalType": "address",
          "name": "to",
          "type": "address"
        },
        {
          "indexed": false,
          "internalType": "uint256[]",
          "name": "ids",
          "type": "uint256[]"
        },
        {
          "indexed": false,
          "internalType": "uint256[]",
          "name": "values",
          "type": "uint256[]"
        }
      ],
      "name": "TransferBatch",
      "type": "event"
    },
    {
      "anonymous": false,
      "inputs": [
        {
          "indexed": true,
          "internalType": "address",
          "name": "operator",
          "type": "address"
        },
        {
          "indexed": true,
          "internalType": "address",
          "name": "from",
          "type": "address"
        },
        {
          "indexed": true,
          "internalType": "address",
          "name": "to",
          "type": "address"
        },
        {
          "indexed": false,
          "internalType": "uint256",
          "name": "id",
          "type": "uint256"
        },
        {
          "indexed": false,
          "internalType": "uint256",
          "name": "value",
          "type": "uint256"
        }
      ],
      "name": "TransferSingle",
      "type": "event"
    },
    {
      "anonymous": false,
      "inputs": [
        {
          "indexed": false,
          "internalType": "string",
          "name": "value",
          "type": "string"
        },
        {
          "indexed": true,
          "internalType": "uint256",
          "name": "id",
          "type": "uint256"
        }
      ],
      "name": "URI",
      "type": "event"
    },
    {
      "inputs": [],
      "name": "admin",
      "outputs": [
        {
          "internalType": "address",
          "name": "",
          "type": "address"
        }
      ],
      "stateMutability": "view",
      "type": "function"
    },
    {
      "inputs": [
        {
          "internalType": "address",
          "name": "account",
          "type": "address"
        },
        {
          "internalType": "uint256",
          "name": "id",
          "type": "uint256"
        }
      ],
      "name": "balanceOf",
      "outputs": [
        {
          "internalType": "uint256",
          "name": "",
          "type": "uint256"
        }
      ],
      "stateMutability": "view",
      "type": "function"
    },
    {
      "inputs": [
        {
          "internalType": "address[]",
          "name": "accounts",
          "type": "address[]"
        },
        {
          "internalType": "uint256[]",
          "name": "ids",
          "type": "uint256[]"
        }
      ],
      "name": "balanceOfBatch",
      "outputs": [
        {
          "internalType": "uint256[]",
          "name": "",
          "type": "uint256[]"
        }
      ],
      "stateMutability": "view",
      "type": "function"
    },
    {
      "inputs": [],
      "name": "baseUri",
      "outputs": [
        {
          "internalType": "string",
          "name": "",
          "type": "string"
        }
      ],
      "stateMutability": "view",
      "type": "function"
    },
    {
      "inputs": [
        {
          "internalType": "address",
          "name": "account",
          "type": "address"
        },
        {
          "internalType": "address",
          "name": "operator",
          "type": "address"
        }
      ],
      "name": "isApprovedForAll",
      "outputs": [
        {
          "internalType": "bool",
          "name": "",
          "type": "bool"
        }
      ],
      "stateMutability": "view",
      "type": "function"
    },
    {
      "inputs": [],
      "name": "name",
      "outputs": [
        {
          "internalType": "string",
          "name": "",
          "type": "string"
        }
      ],
      "stateMutability": "view",
      "type": "function"
    },
    {
      "inputs": [],
      "name": "owner",
      "outputs": [
        {
          "internalType": "address",
          "name": "",
          "type": "address"
        }
      ],
      "stateMutability": "view",
      "type": "function"
    },
    {
      "inputs": [],
      "name": "renounceOwnership",
      "outputs": [],
      "stateMutability": "nonpayable",
      "type": "function"
    },
    {
      "inputs": [
        {
          "internalType": "address",
          "name": "from",
          "type": "address"
        },
        {
          "internalType": "address",
          "name": "to",
          "type": "address"
        },
        {
          "internalType": "uint256[]",
          "name": "ids",
          "type": "uint256[]"
        },
        {
          "internalType": "uint256[]",
          "name": "amounts",
          "type": "uint256[]"
        },
        {
          "internalType": "bytes",
          "name": "data",
          "type": "bytes"
        }
      ],
      "name": "safeBatchTransferFrom",
      "outputs": [],
      "stateMutability": "nonpayable",
      "type": "function"
    },
    {
      "inputs": [
        {
          "internalType": "address",
          "name": "from",
          "type": "address"
        },
        {
          "internalType": "address",
          "name": "to",
          "type": "address"
        },
        {
          "internalType": "uint256",
          "name": "id",
          "type": "uint256"
        },
        {
          "internalType": "uint256",
          "name": "amount",
          "type": "uint256"
        },
        {
          "internalType": "bytes",
          "name": "data",
          "type": "bytes"
        }
      ],
      "name": "safeTransferFrom",
      "outputs": [],
      "stateMutability": "nonpayable",
      "type": "function"
    },
    {
      "inputs": [
        {
          "internalType": "address",
          "name": "operator",
          "type": "address"
        },
        {
          "internalType": "bool",
          "name": "approved",
          "type": "bool"
        }
      ],
      "name": "setApprovalForAll",
      "outputs": [],
      "stateMutability": "nonpayable",
      "type": "function"
    },
    {
      "inputs": [
        {
          "internalType": "bytes",
          "name": "",
          "type": "bytes"
        }
      ],
      "name": "sigs",
      "outputs": [
        {
          "internalType": "uint256",
          "name": "",
          "type": "uint256"
        }
      ],
      "stateMutability": "view",
      "type": "function"
    },
    {
      "inputs": [
        {
          "internalType": "bytes4",
          "name": "interfaceId",
          "type": "bytes4"
        }
      ],
      "name": "supportsInterface",
      "outputs": [
        {
          "internalType": "bool",
          "name": "",
          "type": "bool"
        }
      ],
      "stateMutability": "view",
      "type": "function"
    },
    {
      "inputs": [],
      "name": "symbol",
      "outputs": [
        {
          "internalType": "string",
          "name": "",
          "type": "string"
        }
      ],
      "stateMutability": "view",
      "type": "function"
    },
    {
      "inputs": [],
      "name": "tokenCount",
      "outputs": [
        {
          "internalType": "uint256",
          "name": "",
          "type": "uint256"
        }
      ],
      "stateMutability": "view",
      "type": "function"
    },
    {
      "inputs": [
        {
          "internalType": "address",
          "name": "newOwner",
          "type": "address"
        }
      ],
      "name": "transferOwnership",
      "outputs": [],
      "stateMutability": "nonpayable",
      "type": "function"
    },
    {
      "inputs": [
        {
          "internalType": "uint256",
          "name": "amount",
          "type": "uint256"
        },
        {
          "internalType": "uint256",
          "name": "id",
          "type": "uint256"
        },
        {
          "internalType": "uint256",
          "name": "rval",
          "type": "uint256"
        },
        {
          "internalType": "bytes",
          "name": "signature",
          "type": "bytes"
        }
      ],
      "name": "mint",
      "outputs": [],
      "stateMutability": "nonpayable",
      "type": "function"
    },
    {
      "inputs": [
        {
          "internalType": "uint256",
          "name": "amount",
          "type": "uint256"
        },
        {
          "internalType": "uint256",
          "name": "id",
          "type": "uint256"
        },
        {
          "internalType": "uint256",
          "name": "rval",
          "type": "uint256"
        },
        {
          "internalType": "bytes",
          "name": "signature",
          "type": "bytes"
        }
      ],
      "name": "burn",
      "outputs": [],
      "stateMutability": "nonpayable",
      "type": "function"
    },
    {
      "inputs": [
        {
          "internalType": "uint256",
          "name": "_tokenId",
          "type": "uint256"
        }
      ],
      "name": "uri",
      "outputs": [
        {
          "internalType": "string",
          "name": "",
          "type": "string"
        }
      ],
      "stateMutability": "view",
      "type": "function"
    }
  ],
  "bytecode": "0x60806040523480156200001157600080fd5b506040516200452b3803806200452b8339818101604052810190620000379190620002ca565b806200004981620000be60201b60201c565b506200006a6200005e620000da60201b60201c565b620000e260201b60201c565b826005908051906020019062000082929190620001a8565b5081600690805190602001906200009b929190620001a8565b508060089080519060200190620000b4929190620001a8565b50505050620004db565b8060029080519060200190620000d6929190620001a8565b5050565b600033905090565b6000600360009054906101000a900473ffffffffffffffffffffffffffffffffffffffff16905081600360006101000a81548173ffffffffffffffffffffffffffffffffffffffff021916908373ffffffffffffffffffffffffffffffffffffffff1602179055508173ffffffffffffffffffffffffffffffffffffffff168173ffffffffffffffffffffffffffffffffffffffff167f8be0079c531659141344cd1fd0a4f28419497f9722a3daafe3b4186f6b6457e060405160405180910390a35050565b828054620001b69062000400565b90600052602060002090601f016020900481019282620001da576000855562000226565b82601f10620001f557805160ff191683800117855562000226565b8280016001018555821562000226579182015b828111156200022557825182559160200191906001019062000208565b5b50905062000235919062000239565b5090565b5b80821115620002545760008160009055506001016200023a565b5090565b60006200026f620002698462000394565b6200036b565b9050828152602081018484840111156200028857600080fd5b62000295848285620003ca565b509392505050565b600082601f830112620002af57600080fd5b8151620002c184826020860162000258565b91505092915050565b600080600060608486031215620002e057600080fd5b600084015167ffffffffffffffff811115620002fb57600080fd5b62000309868287016200029d565b935050602084015167ffffffffffffffff8111156200032757600080fd5b62000335868287016200029d565b925050604084015167ffffffffffffffff8111156200035357600080fd5b62000361868287016200029d565b9150509250925092565b6000620003776200038a565b905062000385828262000436565b919050565b6000604051905090565b600067ffffffffffffffff821115620003b257620003b16200049b565b5b620003bd82620004ca565b9050602081019050919050565b60005b83811015620003ea578082015181840152602081019050620003cd565b83811115620003fa576000848401525b50505050565b600060028204905060018216806200041957607f821691505b6020821081141562000430576200042f6200046c565b5b50919050565b6200044182620004ca565b810181811067ffffffffffffffff821117156200046357620004626200049b565b5b80604052505050565b7f4e487b7100000000000000000000000000000000000000000000000000000000600052602260045260246000fd5b7f4e487b7100000000000000000000000000000000000000000000000000000000600052604160045260246000fd5b6000601f19601f8301169050919050565b61404080620004eb6000396000f3fe608060405234801561001057600080fd5b50600436106101205760003560e01c806387810e88116100ad578063a22cb46511610071578063a22cb46514610309578063e985e9c514610325578063f242432a14610355578063f2fde38b14610371578063f851a4401461038d57610120565b806387810e88146102755780638da5cb5b1461029157806395d89b41146102af5780639abc8320146102cd5780639f181b5e146102eb57610120565b80632eb2c2d6116100f45780632eb2c2d6146101d35780634a9eee69146101ef5780634e1273f41461020b5780636f0b6e421461023b578063715018a61461026b57610120565b8062fdd58e1461012557806301ffc9a71461015557806306fdde03146101855780630e89341c146101a3575b600080fd5b61013f600480360381019061013a91906128b3565b6103ab565b60405161014c919061347e565b60405180910390f35b61016f600480360381019061016a919061295b565b610474565b60405161017c919061319c565b60405180910390f35b61018d610556565b60405161019a91906131fc565b60405180910390f35b6101bd60048036038101906101b891906129ee565b6105e4565b6040516101ca91906131fc565b60405180910390f35b6101ed60048036038101906101e89190612729565b610618565b005b61020960048036038101906102049190612a17565b6106b9565b005b610225600480360381019061022091906128ef565b6108db565b6040516102329190613143565b60405180910390f35b610255600480360381019061025091906129ad565b610a8c565b604051610262919061347e565b60405180910390f35b610273610aba565b005b61028f600480360381019061028a9190612a17565b610ace565b005b610299610c78565b6040516102a69190613066565b60405180910390f35b6102b7610ca2565b6040516102c491906131fc565b60405180910390f35b6102d5610d30565b6040516102e291906131fc565b60405180910390f35b6102f3610dbe565b604051610300919061347e565b60405180910390f35b610323600480360381019061031e9190612877565b610dc4565b005b61033f600480360381019061033a91906126ed565b610dda565b60405161034c919061319c565b60405180910390f35b61036f600480360381019061036a91906127e8565b610e6e565b005b61038b600480360381019061038691906126c4565b610f0f565b005b610395610f93565b6040516103a29190613066565b60405180910390f35b60008073ffffffffffffffffffffffffffffffffffffffff168373ffffffffffffffffffffffffffffffffffffffff16141561041c576040517f08c379a0000000000000000000000000000000000000000000000000000000008152600401610413906132de565b60405180910390fd5b60008083815260200190815260200160002060008473ffffffffffffffffffffffffffffffffffffffff1673ffffffffffffffffffffffffffffffffffffffff16815260200190815260200160002054905092915050565b60007fd9b67a26000000000000000000000000000000000000000000000000000000007bffffffffffffffffffffffffffffffffffffffffffffffffffffffff1916827bffffffffffffffffffffffffffffffffffffffffffffffffffffffff1916148061053f57507f0e89341c000000000000000000000000000000000000000000000000000000007bffffffffffffffffffffffffffffffffffffffffffffffffffffffff1916827bffffffffffffffffffffffffffffffffffffffffffffffffffffffff1916145b8061054f575061054e82610fb9565b5b9050919050565b6005805461056390613794565b80601f016020809104026020016040519081016040528092919081815260200182805461058f90613794565b80156105dc5780601f106105b1576101008083540402835291602001916105dc565b820191906000526020600020905b8154815290600101906020018083116105bf57829003601f168201915b505050505081565b606060086105f183611023565b604051602001610602929190612fd4565b6040516020818303038152906040529050919050565b6106206111d0565b73ffffffffffffffffffffffffffffffffffffffff168573ffffffffffffffffffffffffffffffffffffffff1614806106665750610665856106606111d0565b610dda565b5b6106a5576040517f08c379a000000000000000000000000000000000000000000000000000000000815260040161069c9061323e565b60405180910390fd5b6106b285858585856111d8565b5050505050565b600460009054906101000a900473ffffffffffffffffffffffffffffffffffffffff1673ffffffffffffffffffffffffffffffffffffffff1661074a610700878787611546565b84848080601f016020809104026020016040519081016040528093929190818152602001838380828437600081840152601f19601f82011690508083019250505050505050611589565b73ffffffffffffffffffffffffffffffffffffffff16146107a0576040517f08c379a00000000000000000000000000000000000000000000000000000000081526004016107979061345e565b60405180910390fd5b6000600983836040516107b4929190612fbb565b90815260200160405180910390205414610803576040517f08c379a00000000000000000000000000000000000000000000000000000000081526004016107fa9061327e565b60405180910390fd5b60018514610846576040517f08c379a000000000000000000000000000000000000000000000000000000000815260040161083d9061337e565b60405180910390fd5b600161085233866103ab565b1115610893576040517f08c379a000000000000000000000000000000000000000000000000000000000815260040161088a9061343e565b60405180910390fd5b6001600983836040516108a7929190612fbb565b9081526020016040518091039020819055506108d4338587604051806020016040528060008152506115fe565b5050505050565b60608151835114610921576040517f08c379a0000000000000000000000000000000000000000000000000000000008152600401610918906133be565b60405180910390fd5b6000835167ffffffffffffffff811115610964577f4e487b7100000000000000000000000000000000000000000000000000000000600052604160045260246000fd5b6040519080825280602002602001820160405280156109925781602001602082028036833780820191505090505b50905060005b8451811015610a8157610a2b8582815181106109dd577f4e487b7100000000000000000000000000000000000000000000000000000000600052603260045260246000fd5b6020026020010151858381518110610a1e577f4e487b7100000000000000000000000000000000000000000000000000000000600052603260045260246000fd5b60200260200101516103ab565b828281518110610a64577f4e487b7100000000000000000000000000000000000000000000000000000000600052603260045260246000fd5b60200260200101818152505080610a7a906137f7565b9050610998565b508091505092915050565b6009818051602081018201805184825260208301602085012081835280955050505050506000915090505481565b610ac26117af565b610acc600061182d565b565b610ad6610c78565b73ffffffffffffffffffffffffffffffffffffffff16610b44610afa878787611546565b84848080601f016020809104026020016040519081016040528093929190818152602001838380828437600081840152601f19601f82011690508083019250505050505050611589565b73ffffffffffffffffffffffffffffffffffffffff1614610b9a576040517f08c379a0000000000000000000000000000000000000000000000000000000008152600401610b919061345e565b60405180910390fd5b600060098383604051610bae929190612fbb565b90815260200160405180910390205414610bfd576040517f08c379a0000000000000000000000000000000000000000000000000000000008152600401610bf49061327e565b60405180910390fd5b60018514610c40576040517f08c379a0000000000000000000000000000000000000000000000000000000008152600401610c379061341e565b60405180910390fd5b600160098383604051610c54929190612fbb565b908152602001604051809103902081905550610c713385876118f3565b5050505050565b6000600360009054906101000a900473ffffffffffffffffffffffffffffffffffffffff16905090565b60068054610caf90613794565b80601f0160208091040260200160405190810160405280929190818152602001828054610cdb90613794565b8015610d285780601f10610cfd57610100808354040283529160200191610d28565b820191906000526020600020905b815481529060010190602001808311610d0b57829003601f168201915b505050505081565b60088054610d3d90613794565b80601f0160208091040260200160405190810160405280929190818152602001828054610d6990613794565b8015610db65780601f10610d8b57610100808354040283529160200191610db6565b820191906000526020600020905b815481529060010190602001808311610d9957829003601f168201915b505050505081565b60075481565b610dd6610dcf6111d0565b8383611b3a565b5050565b6000600160008473ffffffffffffffffffffffffffffffffffffffff1673ffffffffffffffffffffffffffffffffffffffff16815260200190815260200160002060008373ffffffffffffffffffffffffffffffffffffffff1673ffffffffffffffffffffffffffffffffffffffff16815260200190815260200160002060009054906101000a900460ff16905092915050565b610e766111d0565b73ffffffffffffffffffffffffffffffffffffffff168573ffffffffffffffffffffffffffffffffffffffff161480610ebc5750610ebb85610eb66111d0565b610dda565b5b610efb576040517f08c379a0000000000000000000000000000000000000000000000000000000008152600401610ef29061323e565b60405180910390fd5b610f088585858585611ca7565b5050505050565b610f176117af565b600073ffffffffffffffffffffffffffffffffffffffff168173ffffffffffffffffffffffffffffffffffffffff161415610f87576040517f08c379a0000000000000000000000000000000000000000000000000000000008152600401610f7e9061329e565b60405180910390fd5b610f908161182d565b50565b600460009054906101000a900473ffffffffffffffffffffffffffffffffffffffff1681565b60007f01ffc9a7000000000000000000000000000000000000000000000000000000007bffffffffffffffffffffffffffffffffffffffffffffffffffffffff1916827bffffffffffffffffffffffffffffffffffffffffffffffffffffffff1916149050919050565b6060600082141561106b576040518060400160405280600181526020017f300000000000000000000000000000000000000000000000000000000000000081525090506111cb565b600082905060005b6000821461109d578080611086906137f7565b915050600a826110969190613662565b9150611073565b60008167ffffffffffffffff8111156110df577f4e487b7100000000000000000000000000000000000000000000000000000000600052604160045260246000fd5b6040519080825280601f01601f1916602001820160405280156111115781602001600182028036833780820191505090505b5090505b600085146111c45760018261112a9190613693565b9150600a856111399190613854565b6030611145919061360c565b60f81b818381518110611181577f4e487b7100000000000000000000000000000000000000000000000000000000600052603260045260246000fd5b60200101907effffffffffffffffffffffffffffffffffffffffffffffffffffffffffffff1916908160001a905350600a856111bd9190613662565b9450611115565b8093505050505b919050565b600033905090565b815183511461121c576040517f08c379a0000000000000000000000000000000000000000000000000000000008152600401611213906133de565b60405180910390fd5b600073ffffffffffffffffffffffffffffffffffffffff168473ffffffffffffffffffffffffffffffffffffffff16141561128c576040517f08c379a0000000000000000000000000000000000000000000000000000000008152600401611283906132fe565b60405180910390fd5b60006112966111d0565b90506112a6818787878787611f43565b60005b84518110156114a35760008582815181106112ed577f4e487b7100000000000000000000000000000000000000000000000000000000600052603260045260246000fd5b602002602001015190506000858381518110611332577f4e487b7100000000000000000000000000000000000000000000000000000000600052603260045260246000fd5b60200260200101519050600080600084815260200190815260200160002060008b73ffffffffffffffffffffffffffffffffffffffff1673ffffffffffffffffffffffffffffffffffffffff168152602001908152602001600020549050818110156113d3576040517f08c379a00000000000000000000000000000000000000000000000000000000081526004016113ca9061333e565b60405180910390fd5b81810360008085815260200190815260200160002060008c73ffffffffffffffffffffffffffffffffffffffff1673ffffffffffffffffffffffffffffffffffffffff168152602001908152602001600020819055508160008085815260200190815260200160002060008b73ffffffffffffffffffffffffffffffffffffffff1673ffffffffffffffffffffffffffffffffffffffff1681526020019081526020016000206000828254611488919061360c565b925050819055505050508061149c906137f7565b90506112a9565b508473ffffffffffffffffffffffffffffffffffffffff168673ffffffffffffffffffffffffffffffffffffffff168273ffffffffffffffffffffffffffffffffffffffff167f4a39dc06d4c0dbc64b70af90fd698a233a518aa5d07e595d983b8c0526c8f7fb878760405161151a929190613165565b60405180910390a4611530818787878787611f4b565b61153e818787878787611f53565b505050505050565b60008061157c85858560405160200161156193929190613029565b6040516020818303038152906040528051906020012061213a565b9050809150509392505050565b6000806000806115988561216a565b809350819450829550505050600186848484604051600081526020016040526040516115c794939291906131b7565b6020604051602081039080840390855afa1580156115e9573d6000803e3d6000fd5b50505060206040510351935050505092915050565b600073ffffffffffffffffffffffffffffffffffffffff168473ffffffffffffffffffffffffffffffffffffffff16141561166e576040517f08c379a0000000000000000000000000000000000000000000000000000000008152600401611665906133fe565b60405180910390fd5b60006116786111d0565b90506000611685856121ad565b90506000611692856121ad565b90506116a383600089858589611f43565b8460008088815260200190815260200160002060008973ffffffffffffffffffffffffffffffffffffffff1673ffffffffffffffffffffffffffffffffffffffff1681526020019081526020016000206000828254611702919061360c565b925050819055508673ffffffffffffffffffffffffffffffffffffffff16600073ffffffffffffffffffffffffffffffffffffffff168473ffffffffffffffffffffffffffffffffffffffff167fc3d58168c5ae7397731d063d5bbf3d657854427343f4c083240f7aacaa2d0f628989604051611780929190613499565b60405180910390a461179783600089858589611f4b565b6117a683600089898989612273565b50505050505050565b6117b76111d0565b73ffffffffffffffffffffffffffffffffffffffff166117d5610c78565b73ffffffffffffffffffffffffffffffffffffffff161461182b576040517f08c379a00000000000000000000000000000000000000000000000000000000081526004016118229061335e565b60405180910390fd5b565b6000600360009054906101000a900473ffffffffffffffffffffffffffffffffffffffff16905081600360006101000a81548173ffffffffffffffffffffffffffffffffffffffff021916908373ffffffffffffffffffffffffffffffffffffffff1602179055508173ffffffffffffffffffffffffffffffffffffffff168173ffffffffffffffffffffffffffffffffffffffff167f8be0079c531659141344cd1fd0a4f28419497f9722a3daafe3b4186f6b6457e060405160405180910390a35050565b600073ffffffffffffffffffffffffffffffffffffffff168373ffffffffffffffffffffffffffffffffffffffff161415611963576040517f08c379a000000000000000000000000000000000000000000000000000000000815260040161195a9061331e565b60405180910390fd5b600061196d6111d0565b9050600061197a846121ad565b90506000611987846121ad565b90506119a783876000858560405180602001604052806000815250611f43565b600080600087815260200190815260200160002060008873ffffffffffffffffffffffffffffffffffffffff1673ffffffffffffffffffffffffffffffffffffffff16815260200190815260200160002054905084811015611a3e576040517f08c379a0000000000000000000000000000000000000000000000000000000008152600401611a35906132be565b60405180910390fd5b84810360008088815260200190815260200160002060008973ffffffffffffffffffffffffffffffffffffffff1673ffffffffffffffffffffffffffffffffffffffff16815260200190815260200160002081905550600073ffffffffffffffffffffffffffffffffffffffff168773ffffffffffffffffffffffffffffffffffffffff168573ffffffffffffffffffffffffffffffffffffffff167fc3d58168c5ae7397731d063d5bbf3d657854427343f4c083240f7aacaa2d0f628989604051611b0b929190613499565b60405180910390a4611b3184886000868660405180602001604052806000815250611f4b565b50505050505050565b8173ffffffffffffffffffffffffffffffffffffffff168373ffffffffffffffffffffffffffffffffffffffff161415611ba9576040517f08c379a0000000000000000000000000000000000000000000000000000000008152600401611ba09061339e565b60405180910390fd5b80600160008573ffffffffffffffffffffffffffffffffffffffff1673ffffffffffffffffffffffffffffffffffffffff16815260200190815260200160002060008473ffffffffffffffffffffffffffffffffffffffff1673ffffffffffffffffffffffffffffffffffffffff16815260200190815260200160002060006101000a81548160ff0219169083151502179055508173ffffffffffffffffffffffffffffffffffffffff168373ffffffffffffffffffffffffffffffffffffffff167f17307eab39ab6107e8899845ad3d59bd9653f200f220920489ca2b5937696c3183604051611c9a919061319c565b60405180910390a3505050565b600073ffffffffffffffffffffffffffffffffffffffff168473ffffffffffffffffffffffffffffffffffffffff161415611d17576040517f08c379a0000000000000000000000000000000000000000000000000000000008152600401611d0e906132fe565b60405180910390fd5b6000611d216111d0565b90506000611d2e856121ad565b90506000611d3b856121ad565b9050611d4b838989858589611f43565b600080600088815260200190815260200160002060008a73ffffffffffffffffffffffffffffffffffffffff1673ffffffffffffffffffffffffffffffffffffffff16815260200190815260200160002054905085811015611de2576040517f08c379a0000000000000000000000000000000000000000000000000000000008152600401611dd99061333e565b60405180910390fd5b85810360008089815260200190815260200160002060008b73ffffffffffffffffffffffffffffffffffffffff1673ffffffffffffffffffffffffffffffffffffffff168152602001908152602001600020819055508560008089815260200190815260200160002060008a73ffffffffffffffffffffffffffffffffffffffff1673ffffffffffffffffffffffffffffffffffffffff1681526020019081526020016000206000828254611e97919061360c565b925050819055508773ffffffffffffffffffffffffffffffffffffffff168973ffffffffffffffffffffffffffffffffffffffff168573ffffffffffffffffffffffffffffffffffffffff167fc3d58168c5ae7397731d063d5bbf3d657854427343f4c083240f7aacaa2d0f628a8a604051611f14929190613499565b60405180910390a4611f2a848a8a86868a611f4b565b611f38848a8a8a8a8a612273565b505050505050505050565b505050505050565b505050505050565b611f728473ffffffffffffffffffffffffffffffffffffffff1661245a565b15612132578373ffffffffffffffffffffffffffffffffffffffff1663bc197c8187878686866040518663ffffffff1660e01b8152600401611fb8959493929190613081565b602060405180830381600087803b158015611fd257600080fd5b505af192505050801561200357506040513d601f19601f820116820180604052508101906120009190612984565b60015b6120a95761200f613941565b806308c379a0141561206c5750612024613f18565b8061202f575061206e565b806040517f08c379a000000000000000000000000000000000000000000000000000000000815260040161206391906131fc565b60405180910390fd5b505b6040517f08c379a00000000000000000000000000000000000000000000000000000000081526004016120a09061321e565b60405180910390fd5b63bc197c8160e01b7bffffffffffffffffffffffffffffffffffffffffffffffffffffffff1916817bffffffffffffffffffffffffffffffffffffffffffffffffffffffff191614612130576040517f08c379a00000000000000000000000000000000000000000000000000000000081526004016121279061325e565b60405180910390fd5b505b505050505050565b60008160405160200161214d9190613003565b604051602081830303815290604052805190602001209050919050565b6000806000604184511461217d57600080fd5b60008060006020870151925060408701519150606087015160001a90508083839550955095505050509193909250565b60606000600167ffffffffffffffff8111156121f2577f4e487b7100000000000000000000000000000000000000000000000000000000600052604160045260246000fd5b6040519080825280602002602001820160405280156122205781602001602082028036833780820191505090505b509050828160008151811061225e577f4e487b7100000000000000000000000000000000000000000000000000000000600052603260045260246000fd5b60200260200101818152505080915050919050565b6122928473ffffffffffffffffffffffffffffffffffffffff1661245a565b15612452578373ffffffffffffffffffffffffffffffffffffffff1663f23a6e6187878686866040518663ffffffff1660e01b81526004016122d89594939291906130e9565b602060405180830381600087803b1580156122f257600080fd5b505af192505050801561232357506040513d601f19601f820116820180604052508101906123209190612984565b60015b6123c95761232f613941565b806308c379a0141561238c5750612344613f18565b8061234f575061238e565b806040517f08c379a000000000000000000000000000000000000000000000000000000000815260040161238391906131fc565b60405180910390fd5b505b6040517f08c379a00000000000000000000000000000000000000000000000000000000081526004016123c09061321e565b60405180910390fd5b63f23a6e6160e01b7bffffffffffffffffffffffffffffffffffffffffffffffffffffffff1916817bffffffffffffffffffffffffffffffffffffffffffffffffffffffff191614612450576040517f08c379a00000000000000000000000000000000000000000000000000000000081526004016124479061325e565b60405180910390fd5b505b505050505050565b6000808273ffffffffffffffffffffffffffffffffffffffff163b119050919050565b600061249061248b846134e7565b6134c2565b905080838252602082019050828560208602820111156124af57600080fd5b60005b858110156124df57816124c58882612593565b8452602084019350602083019250506001810190506124b2565b5050509392505050565b60006124fc6124f784613513565b6134c2565b9050808382526020820190508285602086028201111561251b57600080fd5b60005b8581101561254b578161253188826126af565b84526020840193506020830192505060018101905061251e565b5050509392505050565b60006125686125638461353f565b6134c2565b90508281526020810184848401111561258057600080fd5b61258b848285613752565b509392505050565b6000813590506125a281613fae565b92915050565b600082601f8301126125b957600080fd5b81356125c984826020860161247d565b91505092915050565b600082601f8301126125e357600080fd5b81356125f38482602086016124e9565b91505092915050565b60008135905061260b81613fc5565b92915050565b60008135905061262081613fdc565b92915050565b60008151905061263581613fdc565b92915050565b60008083601f84011261264d57600080fd5b8235905067ffffffffffffffff81111561266657600080fd5b60208301915083600182028301111561267e57600080fd5b9250929050565b600082601f83011261269657600080fd5b81356126a6848260208601612555565b91505092915050565b6000813590506126be81613ff3565b92915050565b6000602082840312156126d657600080fd5b60006126e484828501612593565b91505092915050565b6000806040838503121561270057600080fd5b600061270e85828601612593565b925050602061271f85828601612593565b9150509250929050565b600080600080600060a0868803121561274157600080fd5b600061274f88828901612593565b955050602061276088828901612593565b945050604086013567ffffffffffffffff81111561277d57600080fd5b612789888289016125d2565b935050606086013567ffffffffffffffff8111156127a657600080fd5b6127b2888289016125d2565b925050608086013567ffffffffffffffff8111156127cf57600080fd5b6127db88828901612685565b9150509295509295909350565b600080600080600060a0868803121561280057600080fd5b600061280e88828901612593565b955050602061281f88828901612593565b9450506040612830888289016126af565b9350506060612841888289016126af565b925050608086013567ffffffffffffffff81111561285e57600080fd5b61286a88828901612685565b9150509295509295909350565b6000806040838503121561288a57600080fd5b600061289885828601612593565b92505060206128a9858286016125fc565b9150509250929050565b600080604083850312156128c657600080fd5b60006128d485828601612593565b92505060206128e5858286016126af565b9150509250929050565b6000806040838503121561290257600080fd5b600083013567ffffffffffffffff81111561291c57600080fd5b612928858286016125a8565b925050602083013567ffffffffffffffff81111561294557600080fd5b612951858286016125d2565b9150509250929050565b60006020828403121561296d57600080fd5b600061297b84828501612611565b91505092915050565b60006020828403121561299657600080fd5b60006129a484828501612626565b91505092915050565b6000602082840312156129bf57600080fd5b600082013567ffffffffffffffff8111156129d957600080fd5b6129e584828501612685565b91505092915050565b600060208284031215612a0057600080fd5b6000612a0e848285016126af565b91505092915050565b600080600080600060808688031215612a2f57600080fd5b6000612a3d888289016126af565b9550506020612a4e888289016126af565b9450506040612a5f888289016126af565b935050606086013567ffffffffffffffff811115612a7c57600080fd5b612a888882890161263b565b92509250509295509295909350565b6000612aa38383612f77565b60208301905092915050565b612ab8816136c7565b82525050565b6000612ac982613595565b612ad381856135c3565b9350612ade83613570565b8060005b83811015612b0f578151612af68882612a97565b9750612b01836135b6565b925050600181019050612ae2565b5085935050505092915050565b612b25816136d9565b82525050565b612b34816136e5565b82525050565b612b4b612b46826136e5565b613840565b82525050565b6000612b5d83856135e5565b9350612b6a838584613752565b82840190509392505050565b6000612b81826135a0565b612b8b81856135d4565b9350612b9b818560208601613761565b612ba481613963565b840191505092915050565b6000612bba826135ab565b612bc481856135f0565b9350612bd4818560208601613761565b612bdd81613963565b840191505092915050565b6000612bf3826135ab565b612bfd8185613601565b9350612c0d818560208601613761565b80840191505092915050565b60008154612c2681613794565b612c308186613601565b94506001821660008114612c4b5760018114612c5c57612c8f565b60ff19831686528186019350612c8f565b612c6585613580565b60005b83811015612c8757815481890152600182019150602081019050612c68565b838801955050505b50505092915050565b6000612ca56034836135f0565b9150612cb082613981565b604082019050919050565b6000612cc8602f836135f0565b9150612cd3826139d0565b604082019050919050565b6000612ceb6028836135f0565b9150612cf682613a1f565b604082019050919050565b6000612d0e6011836135f0565b9150612d1982613a6e565b602082019050919050565b6000612d31601c83613601565b9150612d3c82613a97565b601c82019050919050565b6000612d546026836135f0565b9150612d5f82613ac0565b604082019050919050565b6000612d776024836135f0565b9150612d8282613b0f565b604082019050919050565b6000612d9a602a836135f0565b9150612da582613b5e565b604082019050919050565b6000612dbd6025836135f0565b9150612dc882613bad565b604082019050919050565b6000612de06023836135f0565b9150612deb82613bfc565b604082019050919050565b6000612e03602a836135f0565b9150612e0e82613c4b565b604082019050919050565b6000612e26600583613601565b9150612e3182613c9a565b600582019050919050565b6000612e496020836135f0565b9150612e5482613cc3565b602082019050919050565b6000612e6c6027836135f0565b9150612e7782613cec565b604082019050919050565b6000612e8f6029836135f0565b9150612e9a82613d3b565b604082019050919050565b6000612eb26029836135f0565b9150612ebd82613d8a565b604082019050919050565b6000612ed56028836135f0565b9150612ee082613dd9565b604082019050919050565b6000612ef86021836135f0565b9150612f0382613e28565b604082019050919050565b6000612f1b6027836135f0565b9150612f2682613e77565b604082019050919050565b6000612f3e601b836135f0565b9150612f4982613ec6565b602082019050919050565b6000612f61600f836135f0565b9150612f6c82613eef565b602082019050919050565b612f808161373b565b82525050565b612f8f8161373b565b82525050565b612fa6612fa18261373b565b61384a565b82525050565b612fb581613745565b82525050565b6000612fc8828486612b51565b91508190509392505050565b6000612fe08285612c19565b9150612fec8284612be8565b9150612ff782612e19565b91508190509392505050565b600061300e82612d24565b915061301a8284612b3a565b60208201915081905092915050565b60006130358286612f95565b6020820191506130458285612f95565b6020820191506130558284612f95565b602082019150819050949350505050565b600060208201905061307b6000830184612aaf565b92915050565b600060a0820190506130966000830188612aaf565b6130a36020830187612aaf565b81810360408301526130b58186612abe565b905081810360608301526130c98185612abe565b905081810360808301526130dd8184612b76565b90509695505050505050565b600060a0820190506130fe6000830188612aaf565b61310b6020830187612aaf565b6131186040830186612f86565b6131256060830185612f86565b81810360808301526131378184612b76565b90509695505050505050565b6000602082019050818103600083015261315d8184612abe565b905092915050565b6000604082019050818103600083015261317f8185612abe565b905081810360208301526131938184612abe565b90509392505050565b60006020820190506131b16000830184612b1c565b92915050565b60006080820190506131cc6000830187612b2b565b6131d96020830186612fac565b6131e66040830185612b2b565b6131f36060830184612b2b565b95945050505050565b600060208201905081810360008301526132168184612baf565b905092915050565b6000602082019050818103600083015261323781612c98565b9050919050565b6000602082019050818103600083015261325781612cbb565b9050919050565b6000602082019050818103600083015261327781612cde565b9050919050565b6000602082019050818103600083015261329781612d01565b9050919050565b600060208201905081810360008301526132b781612d47565b9050919050565b600060208201905081810360008301526132d781612d6a565b9050919050565b600060208201905081810360008301526132f781612d8d565b9050919050565b6000602082019050818103600083015261331781612db0565b9050919050565b6000602082019050818103600083015261333781612dd3565b9050919050565b6000602082019050818103600083015261335781612df6565b9050919050565b6000602082019050818103600083015261337781612e3c565b9050919050565b6000602082019050818103600083015261339781612e5f565b9050919050565b600060208201905081810360008301526133b781612e82565b9050919050565b600060208201905081810360008301526133d781612ea5565b9050919050565b600060208201905081810360008301526133f781612ec8565b9050919050565b6000602082019050818103600083015261341781612eeb565b9050919050565b6000602082019050818103600083015261343781612f0e565b9050919050565b6000602082019050818103600083015261345781612f31565b9050919050565b6000602082019050818103600083015261347781612f54565b9050919050565b60006020820190506134936000830184612f86565b92915050565b60006040820190506134ae6000830185612f86565b6134bb6020830184612f86565b9392505050565b60006134cc6134dd565b90506134d882826137c6565b919050565b6000604051905090565b600067ffffffffffffffff82111561350257613501613912565b5b602082029050602081019050919050565b600067ffffffffffffffff82111561352e5761352d613912565b5b602082029050602081019050919050565b600067ffffffffffffffff82111561355a57613559613912565b5b61356382613963565b9050602081019050919050565b6000819050602082019050919050565b60008190508160005260206000209050919050565b600081519050919050565b600081519050919050565b600081519050919050565b6000602082019050919050565b600082825260208201905092915050565b600082825260208201905092915050565b600081905092915050565b600082825260208201905092915050565b600081905092915050565b60006136178261373b565b91506136228361373b565b9250827fffffffffffffffffffffffffffffffffffffffffffffffffffffffffffffffff0382111561365757613656613885565b5b828201905092915050565b600061366d8261373b565b91506136788361373b565b925082613688576136876138b4565b5b828204905092915050565b600061369e8261373b565b91506136a98361373b565b9250828210156136bc576136bb613885565b5b828203905092915050565b60006136d28261371b565b9050919050565b60008115159050919050565b6000819050919050565b60007fffffffff0000000000000000000000000000000000000000000000000000000082169050919050565b600073ffffffffffffffffffffffffffffffffffffffff82169050919050565b6000819050919050565b600060ff82169050919050565b82818337600083830152505050565b60005b8381101561377f578082015181840152602081019050613764565b8381111561378e576000848401525b50505050565b600060028204905060018216806137ac57607f821691505b602082108114156137c0576137bf6138e3565b5b50919050565b6137cf82613963565b810181811067ffffffffffffffff821117156137ee576137ed613912565b5b80604052505050565b60006138028261373b565b91507fffffffffffffffffffffffffffffffffffffffffffffffffffffffffffffffff82141561383557613834613885565b5b600182019050919050565b6000819050919050565b6000819050919050565b600061385f8261373b565b915061386a8361373b565b92508261387a576138796138b4565b5b828206905092915050565b7f4e487b7100000000000000000000000000000000000000000000000000000000600052601160045260246000fd5b7f4e487b7100000000000000000000000000000000000000000000000000000000600052601260045260246000fd5b7f4e487b7100000000000000000000000000000000000000000000000000000000600052602260045260246000fd5b7f4e487b7100000000000000000000000000000000000000000000000000000000600052604160045260246000fd5b600060033d11156139605760046000803e61395d600051613974565b90505b90565b6000601f19601f8301169050919050565b60008160e01c9050919050565b7f455243313135353a207472616e7366657220746f206e6f6e204552433131353560008201527f526563656976657220696d706c656d656e746572000000000000000000000000602082015250565b7f455243313135353a2063616c6c6572206973206e6f7420746f6b656e206f776e60008201527f6572206e6f7220617070726f7665640000000000000000000000000000000000602082015250565b7f455243313135353a204552433131353552656365697665722072656a6563746560008201527f6420746f6b656e73000000000000000000000000000000000000000000000000602082015250565b7f616c7265616479207369676e6174757265000000000000000000000000000000600082015250565b7f19457468657265756d205369676e6564204d6573736167653a0a333200000000600082015250565b7f4f776e61626c653a206e6577206f776e657220697320746865207a65726f206160008201527f6464726573730000000000000000000000000000000000000000000000000000602082015250565b7f455243313135353a206275726e20616d6f756e7420657863656564732062616c60008201527f616e636500000000000000000000000000000000000000000000000000000000602082015250565b7f455243313135353a2061646472657373207a65726f206973206e6f742061207660008201527f616c6964206f776e657200000000000000000000000000000000000000000000602082015250565b7f455243313135353a207472616e7366657220746f20746865207a65726f20616460008201527f6472657373000000000000000000000000000000000000000000000000000000602082015250565b7f455243313135353a206275726e2066726f6d20746865207a65726f206164647260008201527f6573730000000000000000000000000000000000000000000000000000000000602082015250565b7f455243313135353a20696e73756666696369656e742062616c616e636520666f60008201527f72207472616e7366657200000000000000000000000000000000000000000000602082015250565b7f2e6a736f6e000000000000000000000000000000000000000000000000000000600082015250565b7f4f776e61626c653a2063616c6c6572206973206e6f7420746865206f776e6572600082015250565b7f4f6e6c79206f6e6520746f6b656e2063616e206265206d696e7465642061742060008201527f612074696d652100000000000000000000000000000000000000000000000000602082015250565b7f455243313135353a2073657474696e6720617070726f76616c2073746174757360008201527f20666f722073656c660000000000000000000000000000000000000000000000602082015250565b7f455243313135353a206163636f756e747320616e6420696473206c656e67746860008201527f206d69736d617463680000000000000000000000000000000000000000000000602082015250565b7f455243313135353a2069647320616e6420616d6f756e7473206c656e6774682060008201527f6d69736d61746368000000000000000000000000000000000000000000000000602082015250565b7f455243313135353a206d696e7420746f20746865207a65726f2061646472657360008201527f7300000000000000000000000000000000000000000000000000000000000000602082015250565b7f4f6e6c79206f6e6520746f6b656e2063616e206265206275726e65642061742060008201527f612074696d652100000000000000000000000000000000000000000000000000602082015250565b7f4d61782062616c616e636520666f7220746f6b656e2069732031210000000000600082015250565b7f77726f6e67207369676e61747572650000000000000000000000000000000000600082015250565b600060443d1015613f2857613fab565b613f306134dd565b60043d036004823e80513d602482011167ffffffffffffffff82111715613f58575050613fab565b808201805167ffffffffffffffff811115613f765750505050613fab565b80602083010160043d038501811115613f93575050505050613fab565b613fa2826020018501866137c6565b82955050505050505b90565b613fb7816136c7565b8114613fc257600080fd5b50565b613fce816136d9565b8114613fd957600080fd5b50565b613fe5816136ef565b8114613ff057600080fd5b50565b613ffc8161373b565b811461400757600080fd5b5056fea26469706673582212202aa51d73355a059221d4c6926f4ce7547259ad2496652d9a8a2a16bbe62f551a64736f6c63430008020033",
  "immutableReferences": {},
  "source": "// SPDX-License-Identifier: MIT\r\npragma solidity ^0.8.2;\r\n\r\nimport \"@openzeppelin/contracts/token/ERC1155/ERC1155.sol\";\r\nimport \"@openzeppelin/contracts/access/Ownable.sol\";\r\nimport \"@openzeppelin/contracts/utils/Strings.sol\";\r\n\r\ncontract ChefWopNFT is ERC1155, Ownable {\r\n\r\n    address public admin;\r\n    string public name;\r\n    string public symbol;\r\n    uint256 public tokenCount;\r\n    string public baseUri;\r\n    mapping(bytes => uint) public sigs;\r\n\r\n    constructor(string memory _name, string memory _symbol, string memory _baseUri) ERC1155(_baseUri) {\r\n        name = _name;\r\n        symbol = _symbol;\r\n        baseUri = _baseUri;\r\n    }\r\n\r\n    function mint(uint256 amount, uint256 id, uint256 rval, bytes calldata signature) public {\r\n        require(recoverSigner(kekkaMessage(amount, id, rval), signature) == admin , 'wrong signature');\r\n        require(sigs[signature] == 0, 'already signature');\r\n        require(amount==1, \"Only one token can be minted at a time!\");\r\n        require(balanceOf(msg.sender, id) <= 1, \"Max balance for token is 1!\");\r\n        sigs[signature] = 1;\r\n        _mint(msg.sender, id, amount, \"\");\r\n    }\r\n\r\n    function burn(uint256 amount, uint256 id, uint256 rval, bytes calldata signature) public {\r\n        require(recoverSigner(kekkaMessage(amount, id, rval), signature) == owner() , 'wrong signature');\r\n        require(sigs[signature] == 0, 'already signature');\r\n        require(amount==1, \"Only one token can be burned at a time!\");\r\n        sigs[signature] = 1;\r\n        _burn(msg.sender, id, amount);\r\n    }\r\n\r\n    //\"https://game.example/api/item/{id}.json\"\r\n    function uri(uint256 _tokenId) override public view returns(string memory) {\r\n        return string(\r\n                abi.encodePacked(\r\n                        baseUri,\r\n                        Strings.toString(_tokenId),\r\n                        \".json\"\r\n                    )\r\n            );\r\n    }\r\n\r\n    function prefixed(bytes32 hash) internal pure returns (bytes32) {\r\n      return keccak256(abi.encodePacked(\r\n        '\\x19Ethereum Signed Message:\\n32',\r\n        hash\r\n      ));\r\n    }\r\n\r\n    function kekkaMessage(uint256 amount, uint256 id, uint256 rval) internal pure returns (bytes32) {\r\n      bytes32 message = prefixed(keccak256(abi.encodePacked(amount, id, rval)));\r\n      return message;\r\n    }\r\n\r\n    function recoverSigner(bytes32 message, bytes memory sig) internal pure returns (address) {\r\n      uint8 v;\r\n      bytes32 r;\r\n      bytes32 s;\r\n      (v, r, s) = splitSignature(sig);\r\n      return ecrecover(message, v, r, s);\r\n    }\r\n\r\n    function splitSignature(bytes memory sig) internal pure returns (uint8, bytes32, bytes32) {\r\n      require(sig.length == 65);\r\n      bytes32 r;\r\n      bytes32 s;\r\n      uint8 v;\r\n      assembly {\r\n          // first 32 bytes, after the length prefix\r\n          r := mload(add(sig, 32))\r\n          // second 32 bytes\r\n          s := mload(add(sig, 64))\r\n          // final byte (first byte of the next 32 bytes)\r\n          v := byte(0, mload(add(sig, 96)))\r\n      }\r\n      return (v, r, s);\r\n    }\r\n\r\n}\r\n",
  "sourcePath": "D:/_GITHUB_DEMO/chefwopNFT/contracts/chefwopNFT.sol",
  "compiler": {
    "name": "solc",
    "version": "0.8.2+commit.661d1103.Emscripten.clang"
  },
  "schemaVersion": "3.3.4",
  "updatedAt": "2022-07-07T10:29:42.123Z",
  "devdoc": {
    "kind": "dev",
    "methods": {
      "balanceOf(address,uint256)": {
        "details": "See {IERC1155-balanceOf}. Requirements: - `account` cannot be the zero address."
      },
      "balanceOfBatch(address[],uint256[])": {
        "details": "See {IERC1155-balanceOfBatch}. Requirements: - `accounts` and `ids` must have the same length."
      },
      "isApprovedForAll(address,address)": {
        "details": "See {IERC1155-isApprovedForAll}."
      },
      "owner()": {
        "details": "Returns the address of the current owner."
      },
      "renounceOwnership()": {
        "details": "Leaves the contract without owner. It will not be possible to call `onlyOwner` functions anymore. Can only be called by the current owner. NOTE: Renouncing ownership will leave the contract without an owner, thereby removing any functionality that is only available to the owner."
      },
      "safeBatchTransferFrom(address,address,uint256[],uint256[],bytes)": {
        "details": "See {IERC1155-safeBatchTransferFrom}."
      },
      "safeTransferFrom(address,address,uint256,uint256,bytes)": {
        "details": "See {IERC1155-safeTransferFrom}."
      },
      "setApprovalForAll(address,bool)": {
        "details": "See {IERC1155-setApprovalForAll}."
      },
      "supportsInterface(bytes4)": {
        "details": "See {IERC165-supportsInterface}."
      },
      "transferOwnership(address)": {
        "details": "Transfers ownership of the contract to a new account (`newOwner`). Can only be called by the current owner."
      }
    },
    "version": 1
  },
  "userdoc": {
    "kind": "user",
    "methods": {},
    "version": 1
  }
}